{
  "_format": "hh-sol-artifact-1",
  "contractName": "Counter",
  "sourceName": "contracts/Counter.sol",
  "abi": [
    {
      "inputs": [],
      "stateMutability": "nonpayable",
      "type": "constructor"
    },
    {
      "inputs": [],
      "name": "getCounts",
      "outputs": [
        {
          "internalType": "uint256",
          "name": "",
          "type": "uint256"
        }
      ],
      "stateMutability": "view",
      "type": "function"
    },
    {
      "inputs": [],
      "name": "increment",
      "outputs": [],
      "stateMutability": "nonpayable",
      "type": "function"
    }
  ],
  "bytecode": "0x608060405234801561001057600080fd5b5060008081905550610172806100276000396000f3fe608060405234801561001057600080fd5b50600436106100365760003560e01c8063a53738991461003b578063d09de08a14610059575b600080fd5b610043610063565b604051610050919061009c565b60405180910390f35b61006161006c565b005b60008054905090565b600160005461007b91906100e6565b600081905550565b6000819050919050565b61009681610083565b82525050565b60006020820190506100b1600083018461008d565b92915050565b7f4e487b7100000000000000000000000000000000000000000000000000000000600052601160045260246000fd5b60006100f182610083565b91506100fc83610083565b9250827fffffffffffffffffffffffffffffffffffffffffffffffffffffffffffffffff03821115610131576101306100b7565b5b82820190509291505056fea264697066735822122089d2da678ca60e63fdf5321e8ada100b68c156b9575b24b73f372ff9f48cd99164736f6c63430008090033",
  "linkReferences": {},
  "deployedLinkReferences": {}
}