{
  "_format": "hh-sol-artifact-1",
  "contractName": "Counter",
  "sourceName": "contracts/Counter.sol",
  "abi": [
    {
      "inputs": [],
      "stateMutability": "nonpayable",
      "type": "constructor"
    },
    {
      "inputs": [],
      "name": "getCounts",
      "outputs": [
        {
          "internalType": "uint256",
          "name": "",
          "type": "uint256"
        }
      ],
      "stateMutability": "view",
      "type": "function"
    },
    {
      "inputs": [],
      "name": "increment",
      "outputs": [],
      "stateMutability": "nonpayable",
      "type": "function"
    }
  ],
  "bytecode": "0x608060405234801561001057600080fd5b5060008081905550610172806100276000396000f3fe608060405234801561001057600080fd5b50600436106100365760003560e01c8063a53738991461003b578063d09de08a14610059575b600080fd5b610043610063565b6040516100509190610092565b60405180910390f35b61006161006c565b005b60008054905090565b600160005461007b91906100ad565b600081905550565b61008c81610103565b82525050565b60006020820190506100a76000830184610083565b92915050565b60006100b882610103565b91506100c383610103565b9250827fffffffffffffffffffffffffffffffffffffffffffffffffffffffffffffffff038211156100f8576100f761010d565b5b828201905092915050565b6000819050919050565b7f4e487b7100000000000000000000000000000000000000000000000000000000600052601160045260246000fdfea2646970667358221220133d1d2b60b3ea3a3270f159c85664cb724a2610f119bd946ed992f5a2e22e9364736f6c63430008040033",
  "linkReferences": {},
  "deployedLinkReferences": {}
}